:0400000092EF05F086
:1008000000636F6E74617265207375206469206D7A
:1008100065003A33203C3320546920416D6F203C01
:1008200033004461726C61202620416C66616C6605
:1008300061004C6569207361206368652070756F85
:100840000000000E956ECBEC04F0A7EC05F0010E55
:10085000046E010E03EC05F0320E056E080E066EF6
:100860002BEC05F0010E046E020E03EC05F0010EF8
:10087000056E080E066E2BEC05F0150E0C6E4B0E79
:100880000B6EBE0EE82EFED70B2EFCD70C2EFAD721
:1008900000D0A7EC05F0010E046E010E03EC05F08C
:1008A000220E056E080E066E2BEC05F0010E046E8E
:1008B000020E03EC05F01F0E056E080E066E2BEC03
:1008C00005F0150E0C6E4B0E0B6EBE0EE82EFED70D
:1008D0000B2EFCD70C2EFAD700D0A7EC05F0010E9A
:1008E000046E010E03EC05F0120E056E080E066E86
:1008F0002BEC05F0000E0E6E000E0D6E0E5014E186
:100900000F0E0D5CD8B010D0040E0C6E0C0E0B6EDA
:10091000340EE82EFED70B2EFCD70C2EFAD7A0EC07
:1009200005F00D4A0E2AEAD7000E0E6E000E0D6E6F
:100930000E5014E10F0E0D5CD8B010D0040E0C6EEA
:100940000C0E0B6E340EE82EFED70B2EFCD70C2EA1
:10095000FAD799EC05F00D4A0E2AEAD7A7EC05F074
:10096000010E046E020E03EC05F0410E50EC05F092
:10097000260E50EC05F0410E50EC05F0150E0C6EF5
:100980004B0E0B6EBE0EE82EFED70B2EFCD70C2E98
:10099000FAD700D05AD7000E6CEC05F0340E046E76
:1009A000F20EE82EFED7042EFCD7030E82EC05F0E3
:1009B0000D0E046EFC0EE82EFED7042EFCD7030E9F
:1009C00082EC05F01D0E046E910EE82EFED7042E6B
:1009D000FCD700F0030E82EC05F0020E82EC05F06D
:1009E000020E82EC05F0080E82EC05F0000E82EC9F
:1009F00005F00C0E82EC05F0000E82EC05F0060E00
:100A000082EC05F01200056E0504D8A410D0045045
:100A10007F0F086E08380F0B066E08500F0B076E1D
:100A2000065082EC05F0075082EC05F01200020E31
:100A30000518D8A412000450BF0F086E08380F0B19
:100A4000066E08500F0B076E065082EC05F007503B
:100A500082EC05F01200000E0A6E000E096E10D036
:100A600009500524076E0A500620086E07C0F6FFDD
:100A700008C0F7FF0800F55050EC05F0094A0A2AB3
:100A800009500524076E0A500620086E07C0F6FFBD
:100A900008C0F7FF0800F5500009D8B41200E0D7ED
:100AA000046E04500F0B026E0450F00B036E83842F
:100AB00003380F0B6CEC05F083861A0EE82EFED778
:100AC00000D0839602506CEC05F083861A0EE82E57
:100AD000FED700D083961200016E01A002D0838859
:100AE00001D0839801A202D0838A01D0839A01A405
:100AF00002D0838C01D0839C01A602D0838E120089
:100B0000839E1200036E839403506CEC05F0838681
:100B10000B0E026E620EE82EFED7022EFCD700D01E
:100B200083961200000EF86E080EF76E000121EF9A
:100B300004F0010E82EC05F00C0E82EC05F01200C0
:100B4000010E82EC05F0080E82EC05F01200000E9A
:0C0B500082EC05F0010E82EC05F01200B2
:020000040020DA
:08000000FFFFFFFFFFFFFFFF00
:020000040030CA
:0E000000240C1F1EFF8381FF0FC00FE00F4076
:00000001FF
