:040000008FEF3FF04F
:107F1E00000192EF3FF0000E056E000E046E000E93
:107F2E00036E000E956E0F0EC16E03500410D8A492
:107F3E002FD005C001F0010E026E012A02D0D8909A
:107F4E000236012EFCD70250836E052A080E051844
:107F5E00D8A406D0000E046E010E036E060E056E3A
:107F6E00020E026E450E016EAA0EE82EFED7012EEF
:107F7E00FCD7022EFAD7000E836E020E026E450E4D
:107F8E00016EAA0EE82EFED7012EFCD7022EFAD7CE
:107F9E0003040410D8A4C9D705C001F0010E026E67
:107FAE00012A02D0D8900236012EFCD70250836EE1
:107FBE0005060550D8A404D0000E046E000E036E04
:107FCE00020E026E450E016EAA0EE82EFED7012E8F
:107FDE00FCD7022EFAD7000E836E020E026E450EED
:107FEE00016EAA0EE82EFED7012EFCD7022EFAD76E
:027FFE009CD70E
:020000040020DA
:08000000FFFFFFFFFFFFFFFF00
:020000040030CA
:0E000000240C1E1EFF8385FF0FC00FE00F4073
:00000001FF
