:04000000CBEF3FF013
:107F96000001CEEF3FF0000E036E000E956E0F0E41
:107FA600C16E03C001F0010E026E012A02D0D89004
:107FB6000236012EFCD70250836E032A080E0318E0
:107FC600D8A402D0000E036E020E026E450E016E9C
:107FD600AA0EE82EFED7012EFCD7022EFAD7000EE7
:107FE600836E020E026E450E016EAA0EE82EFED7B5
:0A7FF600012EFCD7022EFAD7D4D7D3
:020000040020DA
:08000000FFFFFFFFFFFFFFFF00
:020000040030CA
:0E000000240C1E1EFF8385FF0FC00FE00F4073
:00000001FF
